:020000040000FA
:04000000803117280C
:100008007E1480310B1F15284E0199188F1C10285B
:1000180085311C258031152819180F1C15288231A7
:10002800D3227E10090080311928F001F101F20174
:10003800F301F401F50137308400003085001330F6
:10004800853116257E10400185310F2D8B1309301F
:100058004001A2000030A3000030A400A500003039
:10006800A600A70084310924803100304001A20095
:10007800A3000930A4000030A5000030A600A700A6
:1000880084310924803100304001A200A3000030EF
:10009800A400A5000930A6000030A7008431092477
:1000A800803109304001A2000030A3000930A400CB
:1000B8000030A5000030A600A70084310924803153
:1000C80009304001A2000030A3000030A400A500C0
:1000D8000930A6000030A70084310924803100309F
:1000E8004001A200A3000930A4000030A500093097
:1000F800A6000030A7008431092480310330400174
:10010800B6007030B5005C30890B8828B50B88289C
:10011800B60B882800000B304001B6002630B50029
:100128005D30890B9528B50B9528B60B95280032BC
:1001380000304001A200A3000930A4000030A5004F
:100148000930A6000030A700843109248031093025
:100158004001A2000030A3000030A400A500003038
:10016800A600A70084310924803100304001A20094
:10017800A3000930A4000030A5000030A600A700A5
:1001880084310924803100304001A200A3000030EE
:10019800A400A5000930A6000030A7008431092476
:1001A800803109304001A2000030A3000930A400CA
:1001B8000030A5000030A600A70084310924803152
:1001C80009304001A2000030A3000030A400A500BF
:1001D8000930A6000030A70084310924803103309B
:1001E8004001B6007030B5005C30890BF928B50BBA
:1001F800F928B60BF92800000B304001B60026306C
:10020800B5005D30890B0629B50B0629B60B062902
:10021800003209304001A2000030A3000030A400E1
:10022800A5000930A6000030A700843109248031D8
:1002380000304001A200A3000930A4000030A5004E
:100248000930A6000030A700843109248031093024
:100258004001A2000030A3000030A400A500003037
:10026800A600A70084310924803100304001A20093
:10027800A3000930A4000030A5000030A600A700A4
:1002880084310924803100304001A200A3000030ED
:10029800A400A5000930A6000030A7008431092475
:1002A800803109304001A2000030A3000930A400C9
:1002B8000030A5000030A600A70084310924803151
:1002C80003304001B6007030B5005C30890B6A29F4
:1002D800B50B6A29B60B6A2900000B304001B6003D
:1002E8002630B5005D30890B7729B50B7729B60B19
:1002F8007729003209304001A2000030A3000930FC
:10030800A4000030A5000030A600A700843109240D
:10031800803109304001A2000030A3000030A40061
:10032800A5000930A6000030A700843109248031D7
:1003380000304001A200A3000930A4000030A5004D
:100348000930A6000030A700843109248031093023
:100358004001A2000030A3000030A400A500003036
:10036800A600A70084310924803100304001A20092
:10037800A3000930A4000030A5000030A600A700A3
:1003880084310924803100304001A200A3000030EC
:10039800A400A5000930A6000030A7008431092474
:1003A800803103304001B6007030B5005C30890BF5
:1003B800DB29B50BDB29B60BDB2900000B3040012C
:1003C800B6002630B5005D30890BE829B50BE82961
:1003D800B60BE829003200304001A200A30000302B
:1003E800A400A5000930A6000030A7008431092424
:1003F800803109304001A2000030A3000930A40078
:100408000030A5000030A600A700843109248031FF
:1004180009304001A2000030A3000030A400A5006C
:100428000930A6000030A70084310924803100304B
:100438004001A200A3000930A4000030A500093043
:10044800A6000030A700843109248031093040011A
:10045800A2000030A3000030A400A5000030A600D0
:10046800A70084310924803100304001A200A30094
:100478000930A4000030A5000030A600A700843190
:100488000924803103304001B6007030B5005C307B
:10049800890B4C2AB50B4C2AB60B4C2A00000B30A2
:1004A8004001B6002630B5005D30890B592AB50BDE
:1004B800592AB60B592A003200304001A200A30085
:1004C8000930A4000030A5000030A600A700843140
:1004D8000924803100304001A200A3000030A400AC
:1004E800A5000930A6000030A70084310924803116
:1004F80009304001A2000030A3000930A4000030F8
:10050800A5000030A600A7008431092480310930F5
:100518004001A2000030A3000030A400A50009306B
:10052800A6000030A7008431092480310030400142
:10053800A200A3000930A4000030A5000930A600DD
:100548000030A70084310924803109304001A2001D
:100558000030A3000030A400A5000030A600A700CA
:1005680084310924803103304001B6007030B50071
:100578005C30890BBD2AB50BBD2AB60BBD2A00001D
:100588000B304001B6002630B5005D30890BCA2A11
:10059800B50BCA2AB60BCA2A00328B1708004E01BF
:1005A8000F104301901FE52B9013F3017008023ED2
:1005B800860087010108860087018101810AF00110
:1005C80008004001B91808003808F8007808F00059
:1005D8003808860087010108F8007808F200380812
:1005E80086008701413FF1000330F8007808B8071A
:1005F80038084A3A031D042B4730F8007808B80039
:100608003910380837060319B91443011114023098
:10061800F8007808F3000800932B111F1C2B0130F9
:10062800F80078084001BB0704308431BA24080078
:100638007508F9007408F800F936F80C78088C0089
:10064800741C2B2B0B30F8007808F30008000330DB
:10065800F8007808F3000800111F3B2B0130F80060
:1006680078084001BB0704308431BA24080091148B
:100678007508F9007408F8007908F800F9010630DF
:100688007805FA0000307905FB00F0307A04F400B0
:1006980000307B04F50074144001BC01BC0A0B2B2C
:1006A80040013C030319692B710886008701403F0C
:1006B800F400413FF500710886008701433FBE0002
:1006C800710886008701423FBD00740843018C0011
:1006D800741C2B2B0530F8007808F3000800111F54
:1006E800802B0130F80078084001BB074301111343
:1006F80005308431BA24080001304001BD023D0AAA
:10070800031D952B0430F8007808F1070130F20238
:10071800031D922B00308431BA2408004301911440
:100728000B2B3E0886008701010843018C0001302D
:10073800F80078084001BE070800111FAE2B0130F1
:10074800F80078084001BB0704308431BA2443011B
:100758001113080091150830F8007808F300080014
:100768000830F8007808F300911508000C08F80024
:1007780040013E0886008701780881000130F800B2
:100788007808BE070130BD020319D12B430191122D
:100798000630F8007808F300D52B43019116843110
:1007A800D12443011116080000308431BA2408000E
:1007B8000130F80078084001BB0706308431BA24BC
:1007C80008007308003A0319E52A013A0319102BA7
:1007D800033A0319542B013A0319732B073A0319E7
:1007E800D82B013A0319A12B033A0319B42B013A68
:1007F8000319D82B0F3A0319BA2B023A0319112BF4
:10080800013A0319302BDC2B080017304001B300E4
:100818000030B4003408803AA80080302802031D54
:10082800172C10303302031C2D2C40013308F03EE6
:10083800AB00FF30343DAC002B0AA8002508AA0005
:100848002408A9002A2C2A0DAA0CA90CA80B272CCD
:100858005F2C40013408803AA80080302802083014
:1008680003193302031C4C2C40013308F83EAD0039
:10087800FF30343DAE002D0AA8002308AA00220844
:10088800A900492C2A0DAA0CA90CA80B462C5F2CF0
:100898004001B41B662C3408B0003308AF002F0A9F
:1008A800A8002708AA002608A9005D2C2A0DAA0C72
:1008B800A90CA80B5A2C013040012905B1000030C1
:1008C8002A05692C0130B1000030B2003208A100BD
:1008D8003108A0008431E1248431FF304001B3079E
:1008E800FF30B43D330A031D0E2C340A03190800E7
:1008F8000E2C400198019A013B3092003F30940041
:100908003C307E01CE003730B800B901CF01BA01C2
:10091800D0013730BB003F30D1003F30BC003F3002
:10092800D2001330A00010307D01C50014307E01C4
:10093800A10011307D01C600080047304001A00029
:100948002008B8004730A0002008B700B9143910B3
:10095800BB0143018F0128309000920103308D00C4
:100968004E010F108F10191499140800F700430155
:1009780011157008023E8600870101080319CF2C63
:100988007708F6007008023E860087010108860095
:10099800870176088100F30108000430F600760824
:1009A800F1070130F202031DDE2C0430F600760850
:1009B800F3000800F301F30A0800400120082104AD
:1009C8000319ED2C18150000000000004001181153
:1009D80008001815181108008431FC24843184316A
:1009E8007D2484318531062584318431A124080091
:1009F8004F0196019701980199019A019B019C0169
:100A08009D010800603051018D008F019101063071
:100A18009300920108008431F024853180312A2026
:100A28008531122D640080010131890B172D0034A6
:060A38004E018F100800C2
:020000040001F9
:0A000E00EC3FFF3F9F3FFF3FFF3F25
:00000001FF
