:020000040000FA
:04000000803117280C
:100008007E1480310B1F15284E0199188F1C10285B
:100018008231B8228031152819180F1C1528803113
:100028002A207E10090080311928F001F101F2011F
:10003800F301F401F50134308400003085001330F9
:100048008231B2227E1040018231A02A4E010F1067
:100058004301901F3C299013F3017008023E86006B
:1000680087010108860087018101810AF0010800E3
:100078004001B61808003508F8007808F00035087F
:10008800860087010108F8007808F2003508860024
:100098008701413FF1000330F8007808B5073508BB
:1000A800473A031D5B284430F8007808B50036103D
:1000B800350834060319B614430111140230F80048
:1000C8007808F3000800EA28111F73280130F800A7
:1000D80078084001B80704308231512208007508B9
:1000E800F9007408F800F936F80C78088C00741CCC
:1000F80082280B30F8007808F30008000330F80075
:100108007808F3000800111F92280130F8007808D9
:100118004001B80704308231512208009114750853
:10012800F9007408F8007908F800F9010630780534
:10013800FA0000307905FB00F0307A04F400003052
:100148007B04F50074144001B901B90A6228400122
:1001580039030319C028710886008701403FF4005D
:10016800413FF500710886008701433FBB007108D5
:1001780086008701423FBA00740843018C00741C52
:1001880082280530F8007808F3000800111FD728E6
:100198000130F80078084001B80743011113053011
:1001A80082315122080001304001BA023A0A031D87
:1001B800EC280430F8007808F1070130F202031D3A
:1001C800E928003082315122080043019114622845
:1001D8003B0886008701010843018C000130F800C4
:1001E80078084001BB070800111F05290130F800F5
:1001F80078084001B80704308231512243011113B5
:10020800080091150830F8007808F3000800083055
:10021800F8007808F300911508000C08F800400170
:100228003B0886008701780881000130F8007808CB
:10023800BB070130BA02031928294301911206307D
:10024800F8007808F3002C294301911682317A22AC
:100258004301111608000030823151220800013094
:10026800F80078084001B8070630823151220800AA
:100278007308003A03193C28013A03196728033A1E
:100288000319AB28013A0319CA28073A03192F2979
:10029800013A0319F828033A03190B29013A0319FB
:1002A8002F290F3A03191129023A03196828013A2C
:1002B80003198728332908004001A7001730B00028
:1002C8000030B1003108803AA40080302402031DB8
:1002D8006F2910303002031C802940013008F03E9D
:1002E800A800FF30313DA9002308A400280A7D2971
:1002F800A436890B7C29A82940013108803AA4003A
:1003080080302402083003193002031C9A29400166
:100318003008F83EAA00FF30313DAB002708A400A2
:100328002A0A9729A436890B9629A8294001B11BC6
:10033800B0293108AD003008AC002208A4002C0A0E
:10034800A629A436890BA52924080139A500A601E8
:100358002508AE002608B3290130AE000030AF00F2
:100368002F08A1002E08A000823168228131FF30B9
:100378004001B007FF30B13D300A031D6629310A3C
:100388000319080066294001A201A3010530813143
:100398006021813105304001B2003208A200A3017A
:1003A80000308131602181314001A2010530B20065
:1003B8003208A300003081316021813105304001CD
:1003C800B2003208A2000530B3003308A30005309C
:1003D8008131602181314001A2010530B20032082B
:1003E800A300053081316021813105304001B20020
:1003F8003208A2000530B3003308A3000030813171
:100408006021813103304001B3007030B2005C30AC
:10041800890B0C2AB20B0C2AB30B0C2A000008001B
:10042800400198019A013B3092003F3094003C30E3
:100438007E01CE003730B800B901CF01BA01D00132
:100448003730BB003F30D1003F30BC003F30D200D6
:100458001330A00010307D01C50014307E01A100CA
:1004680011307D01C600080044304001A00020087A
:10047800B5004430A0002008B400B6143610B80106
:1004880043018F0128309000920103308D004E0106
:100498000F108F10191499140800F7004301111553
:1004A8007008023E8600870101080319662A77084A
:1004B800F6007008023E8600870101088600870161
:1004C80076088100F301080040012008210403197F
:1004D800742A1815000000000000400118110800D7
:1004E8001815181100000000000008000430F6007C
:1004F8007608F1070130F202031D872A0430F6005E
:100508007608F3000800F301F30A08008231962206
:1005180082318231142282318231A92282318231A0
:10052800382208004F0196019701980199019A0114
:100538009B019C019D01080082318A2282318B1324
:100548008131C72182318B17A32A603051018D0078
:100558008F01910106309300920108006400800128
:0E0568000131890BB32A00344E018F100800B8
:020000040001F9
:0A000E00EC3FFF3F9F3FFF3FFF3F25
:00000001FF
