:020000040000FA
:04000000803117280C
:100008007E1480310B1F15284E0199188F1C10285B
:100018008231DA228031152819180F1C15288031F1
:100028002A207E10090080311928F001F101F2011F
:10003800F301F401F50135308400003085001330F8
:100048008231D4227E1040018231CD2A4E010F1018
:100058004301901F3C299013F3017008023E86006B
:1000680087010108860087018101810AF0010800E3
:100078004001B71808003608F8007808F00036087C
:10008800860087010108F8007808F2003608860023
:100098008701413FF1000330F8007808B6073608B9
:1000A800483A031D5B284530F8007808B600371039
:1000B800360835060319B714430111140230F80045
:1000C8007808F3000800EA28111F73280130F800A7
:1000D80078084001B9070430823187220800750882
:1000E800F9007408F800F936F80C78088C00741CCC
:1000F80082280B30F8007808F30008000330F80075
:100108007808F3000800111F92280130F8007808D9
:100118004001B9070430823187220800911475081C
:10012800F9007408F8007908F800F9010630780534
:10013800FA0000307905FB00F0307A04F400003052
:100148007B04F50074144001BA01BA0A6228400120
:100158003A030319C028710886008701403FF4005C
:10016800413FF500710886008701433FBC007108D4
:1001780086008701423FBB00740843018C00741C51
:1001880082280530F8007808F3000800111FD728E6
:100198000130F80078084001B90743011113053010
:1001A80082318722080001304001BB023B0A031D4F
:1001B800EC280430F8007808F1070130F202031D3A
:1001C800E92800308231872208004301911462280F
:1001D8003C0886008701010843018C000130F800C3
:1001E80078084001BC070800111F05290130F800F4
:1001F80078084001B907043082318722430111137E
:10020800080091150830F8007808F3000800083055
:10021800F8007808F300911508000C08F800400170
:100228003C0886008701780881000130F8007808CA
:10023800BC070130BB02031928294301911206307B
:10024800F8007808F3002C294301911682319E2288
:10025800430111160800003082318722080001305E
:10026800F80078084001B907063082318722080073
:100278007308003A03193C28013A03196728033A1E
:100288000319AB28013A0319CA28073A03192F2979
:10029800013A0319F828033A03190B29013A0319FB
:1002A8002F290F3A03191129023A03196828013A2C
:1002B80003198728332908004001A800B101B201B9
:1002C8003208803AA50080302502031D6D291030C0
:1002D8003102031C7E2940013108F03EA900FF309D
:1002E800323DAA002408A500290A7B29A536890BD6
:1002F8007A29A62940013208803AA50080302502D3
:10030800083003193102031C982940013108F83ECE
:10031800AB00FF30323DAC002808A5002B0A952918
:10032800A536890B9429A6294001B21BAE293208AB
:10033800AE003108AD002308A5002D0AA429A53672
:10034800890BA32925080139A600A7012608AF00B3
:100358002708B1290130AF000030B0003008A100F3
:100368002F08A00082311922813101304001B107E4
:100378000030B23D183031063204031908006429F0
:100388004001A301A401FF30813160218131FF3098
:100398004001B3003308A300A4010030813160217B
:1003A80081314001A301FF30B3003308A4000030BD
:1003B80081316021813103304001B4000830B3003D
:1003C8007730890BE529B30BE529B40BE529FF3014
:1003D8004001B3003308A300FF30B4003408A40080
:1003E800FF30813160218131FF304001B300330893
:1003F800A300FF30B4003408A400FF30813160212D
:1004080081314001A301A401003081316021813193
:1004180003304001B4000830B3007730890B122A4A
:10042800B30B122AB40B122A080040012008210439
:100438000319342A181509304001A2004E30890BDF
:10044800232AA20B232A000040011811053040017D
:10045800A200AB30890B2E2AA20B2E2A00320800EC
:10046800181505304001A2002630890B392AA20B45
:10047800392A00004001181109304001A200D33088
:10048800890B442AA20B442A003208004001980133
:100498009A013B3092003F3094003C307E01CE0000
:1004A8003730B800B901CF01BA01D0013730BB00ED
:1004B8003F30D1003F30BC003F30D2001330A000A5
:1004C80010307D01C50014307E01A10011307D017E
:1004D800C600080045304001A0002008B60045309D
:1004E800A0002008B500B7143710B90143018F01E7
:1004F80028309000920103308D004E010F108F10AC
:10050800191499140800F700430111157008023EE8
:1005180086008701010803199C2A7708F6007008ED
:10052800023E86008701010886008701760881005F
:10053800F30108000430F6007608F1070130F202F2
:10054800031DAB2A0430F6007608F3000800F30117
:10055800F30A08008231BA22823182314A2282317A
:100568008231C422823182316E2208004F01960105
:100578009701980199019A019B019C019D0108002E
:10058800603051018D008F01910106309300920176
:1005980008008231AE2282318131C4218231D02AD1
:1005A800640080010131890BD52A00344E018F1077
:0205B800080039
:020000040001F9
:0A000E00EC3FFF3F9F3FFF3FFF3F25
:00000001FF
